{
  "contractName": "InterfaceIds",
  "abi": [
    {
      "inputs": [],
      "stateMutability": "nonpayable",
      "type": "constructor"
    },
    {
      "inputs": [
        {
          "internalType": "string",
          "name": "",
          "type": "string"
        }
      ],
      "name": "interfaces",
      "outputs": [
        {
          "internalType": "bytes4",
          "name": "",
          "type": "bytes4"
        }
      ],
      "stateMutability": "view",
      "type": "function"
    },
    {
      "inputs": [
        {
          "internalType": "string",
          "name": "selector",
          "type": "string"
        }
      ],
      "name": "getInterfaceId",
      "outputs": [
        {
          "internalType": "bytes4",
          "name": "",
          "type": "bytes4"
        }
      ],
      "stateMutability": "view",
      "type": "function"
    }
  ],
  "bytecode": "0x608060405234801561001057600080fd5b507f01ffc9a7000000000000000000000000000000000000000000000000000000006000604051610040906103fa565b908152602001604051809103902060006101000a81548163ffffffff021916908360e01c02179055507f80ac58cd000000000000000000000000000000000000000000000000000000006000604051610098906103bb565b908152602001604051809103902060006101000a81548163ffffffff021916908360e01c02179055507f5b5e139f0000000000000000000000000000000000000000000000000000000060006040516100f0906103e5565b908152602001604051809103902060006101000a81548163ffffffff021916908360e01c02179055507f780e9d630000000000000000000000000000000000000000000000000000000060006040516101489061040f565b908152602001604051809103902060006101000a81548163ffffffff021916908360e01c02179055507fe58e113c0000000000000000000000000000000000000000000000000000000060006040516101a0906103a6565b908152602001604051809103902060006101000a81548163ffffffff021916908360e01c02179055507fd9b67a260000000000000000000000000000000000000000000000000000000060006040516101f8906103d0565b908152602001604051809103902060006101000a81548163ffffffff021916908360e01c021790555061042f565b6000610233600783610424565b91507f49455243373737000000000000000000000000000000000000000000000000006000830152600782019050919050565b6000610273600783610424565b91507f49455243373231000000000000000000000000000000000000000000000000006000830152600782019050919050565b60006102b3600883610424565b91507f49455243313135350000000000000000000000000000000000000000000000006000830152600882019050919050565b60006102f3600f83610424565b91507f494552433732314d6574616461746100000000000000000000000000000000006000830152600f82019050919050565b6000610333600783610424565b91507f49455243313635000000000000000000000000000000000000000000000000006000830152600782019050919050565b6000610373601183610424565b91507f49455243373231456e756d657261626c650000000000000000000000000000006000830152601182019050919050565b60006103b182610226565b9150819050919050565b60006103c682610266565b9150819050919050565b60006103db826102a6565b9150819050919050565b60006103f0826102e6565b9150819050919050565b600061040582610326565b9150819050919050565b600061041a82610366565b9150819050919050565b600081905092915050565b6103b48061043e6000396000f3fe608060405234801561001057600080fd5b50600436106100365760003560e01c8063ac9adeec1461003b578063b6219cca1461006b575b600080fd5b610055600480360381019061005091906101ba565b61009b565b604051610062919061028d565b60405180910390f35b610085600480360381019061008091906101ff565b6100d2565b604051610092919061028d565b60405180910390f35b60008083836040516100ae929190610274565b908152602001604051809103902060009054906101000a900460e01b905092915050565b6000818051602081018201805184825260208301602085012081835280955050505050506000915054906101000a900460e01b81565b600061011b610116846102d9565b6102a8565b90508281526020810184848401111561013357600080fd5b61013e848285610340565b509392505050565b60008083601f84011261015857600080fd5b8235905067ffffffffffffffff81111561017157600080fd5b60208301915083600182028301111561018957600080fd5b9250929050565b600082601f8301126101a157600080fd5b81356101b1848260208601610108565b91505092915050565b600080602083850312156101cd57600080fd5b600083013567ffffffffffffffff8111156101e757600080fd5b6101f385828601610146565b92509250509250929050565b60006020828403121561021157600080fd5b600082013567ffffffffffffffff81111561022b57600080fd5b61023784828501610190565b91505092915050565b61024981610314565b82525050565b600061025b8385610309565b9350610268838584610340565b82840190509392505050565b600061028182848661024f565b91508190509392505050565b60006020820190506102a26000830184610240565b92915050565b6000604051905081810181811067ffffffffffffffff821117156102cf576102ce61034f565b5b8060405250919050565b600067ffffffffffffffff8211156102f4576102f361034f565b5b601f19601f8301169050602081019050919050565b600081905092915050565b60007fffffffff0000000000000000000000000000000000000000000000000000000082169050919050565b82818337600083830152505050565b7f4e487b7100000000000000000000000000000000000000000000000000000000600052604160045260246000fdfea2646970667358221220a5ba3beef8909833e10c66765214d135d1a680c90249c0db1fd1a2ec24143bf464736f6c63430008000033",
  "immutableReferences": {},
  "source": "// SPDX-License-Identifier: MIT\npragma solidity ^0.8.0;\n\nimport \"@openzeppelin/contracts/utils/introspection/IERC165.sol\";\nimport \"@openzeppelin/contracts/token/ERC721/IERC721.sol\";\nimport \"@openzeppelin/contracts/token/ERC721/extensions/IERC721Metadata.sol\";\nimport \"@openzeppelin/contracts/token/ERC721/extensions/IERC721Enumerable.sol\";\nimport \"@openzeppelin/contracts/token/ERC777/IERC777.sol\";\nimport \"@openzeppelin/contracts/token/ERC1155/IERC1155.sol\";\n\ncontract InterfaceIds {\n    mapping(string => bytes4) public interfaces;\n\n    constructor() {\n        interfaces[\"IERC165\"] = type(IERC165).interfaceId;\n        interfaces[\"IERC721\"] = type(IERC721).interfaceId;\n        interfaces[\"IERC721Metadata\"] = type(IERC721Metadata).interfaceId;\n        interfaces[\"IERC721Enumerable\"] = type(IERC721Enumerable).interfaceId;\n        interfaces[\"IERC777\"] = type(IERC777).interfaceId;\n        interfaces[\"IERC1155\"] = type(IERC1155).interfaceId;\n    }\n\n    function getInterfaceId(string calldata selector) external view returns (bytes4) {\n        return interfaces[selector];\n    }\n}\n",
  "sourcePath": "/home/rozifus/Work/Rozifus/nftbug/contracts/InterfaceIds.sol",
  "compiler": {
    "name": "solc",
    "version": "0.8.0+commit.c7dfd78e.Emscripten.clang"
  },
  "schemaVersion": "3.4.3",
  "updatedAt": "2021-09-16T12:55:49.763Z",
  "devdoc": {
    "kind": "dev",
    "methods": {},
    "version": 1
  },
  "userdoc": {
    "kind": "user",
    "methods": {},
    "version": 1
  }
}